S01F00005241344C315F564C35334C3843585F50726F6A656374312E73726563D2
S3150000000038D50020191600005513000015160000FB
S31500000010151600001516000015160000151600002E
S31500000020000000000000000000000000151600009F
S315000000301516000000000000151600001516000039
S3150000004041070000BD060000BD070000F1070000E3
S31500000050BD0C0000210E00001D0F0000CD0F00009A
S31500000060000000000000000000000000000000008A
S31500000070000000000000000000000000000000007A
S31500000080000000000000000000000000000000006A
S31500000090000000000000000000000000000000005A
S315000000A0000000000000000000000000000000004A
S315000000B0000000000000000000000000000000003A
S315000000C0000000000000000000000000000000002A
S315000000D0000000000000000000000000000000001A
S315000000E0000000000000000000000000000000000A
S315000000F000000000000000000000000000000000FA
S3150000010000000000000000000000000000000000E9
S3150000011000000000000000000000000000000000D9
S3150000012000000000000000000000000000000000C9
S3150000013000000000000000000000000000000000B9
S315000001400348044B834202D0034B03B11847704760
S31500000150DC010020DC01002000000000064B0749FE
S31500000160C91A891048BF0131491003D0044B0BB19D
S3150000017001481847704700BFDC010020DC01002061
S315000001800000000010B5064C237843B9FFF7D8FFEE
S31500000190044B13B10448AFF300800123237010BD54
S315000001A0F801002000000000FCBD010008B5054B69
S315000001B01BB105490548AFF30080BDE80840FFF7CD
S315000001C0CDBF00BF00000000FC010020FCBD010007
S315000001D00379022B02D10122014B1A70704700BF2E
S315000001E0191200202DE9F047B2F1000982B019DD9D
S315000001F08A460025DFF83C800C4C0D4F01EB0906C2
S315000002001AF9013B0122384601A9019300F0F2F8E0
S31500000210C8F8000000B100BE2378002BFCD056457C
S315000002202570EDD1484602B0BDE8F08719120020CE
S31500000230281200201C1200200122034B1A7008B15C
S3150000024002791A70704700BF040000202DE9F047BC
S315000002504849494800F018F9484D286000287CD1E3
S315000002600446474803F062F922464FF4A161454827
S3150000027000F0F2FA4FF47A710A2001F03FF80122F9
S315000002804FF4A1613F4800F0E7FA3F493F4800F0CC
S31500000290C1FC2860002866D152233D4F3D4C3E49A3
S315000002A03E483B8003F0D2F82146384601F0B6FBC3
S315000002B0DFF810A123788AF8000003B120B1BDE869
S315000002C0F047374803F032B9384601F013FE8AF892
S315000002D0000000283CD1384602F03EF9DFF8E880FD
S315000002E0304D314CDFF8E4908AF80000414638463C
S315000002F001F0D6FB98F800308AF800001BB32146BF
S31500000300384601F0FBFBB978284803F09FF8002334
S315000003101946274E2B7004EB410362183046B3F999
S31500000320C43392F8842403F091F829780131C9B2D4
S315000003300F292970EFD90A2003F09AF899F80030AE
S31500000340013389F800300521384602F05DFBCDE720
S315000003501848BDE8F04703F0E9B84721164B174A9D
S31500000360174800F0C3FF5121134B144A144800F0FC
S31500000370BDFF00BFD85E0000281200201C1200201E
S31500000380945D0000201200200C5F0000581200202F
S315000003906407002016120020A45D0000B45D000072
S315000003A0DC5D00001412002014020020245E000010
S315000003B03C5E0000085E00006C5D0000CC5E000044
S315000003C0805D000018120020151200201712002070
S315000003D0022800D070470249024800F0E9BA00BF7F
S315000003E03C5F00002012002008B5FFF72FFF002019
S315000003F008BD00BF10B4046AA37803F07B03A370A2
S315000004008378046A03F00303D21A0B44C0E903326B
S31500000410A37843F08003A370837803F00303022BD1
S3150000042006D0036A0A780020DA705DF8044B70473C
S315000004300B88026A43F47E43D38100205DF8044BA7
S31500000440704700BFF0B5846A85B005460F469446EE
S315000004506E46B4B194E80F0086E80F00EB692046BB
S315000004601B78A760236084F804C0EB6AE3606B6ABC
S315000004709847AC6A1CB196E80F0084E80F0005B0F7
S31500000480F0BD3446EAE700BF2DE9F8430B780D4688
S31500000490012B044600F0FE800026012703F58003A9
S315000004A003F58C531B02C4E9075326706A69A378C7
S315000004B06262AA6967F30103C4E90A62A3706B78F2
S315000004C0BB4214BF3A460222A37862F30103A3702B
S315000004D095F90B8095F80A90404600F097FF404644
S315000004E000F056FF22464946404600F05FFF95F968
S315000004F0058095F80490404600F088FF404600F0DD
S3150000050047FF22464946404600F050FF95F90780CE
S3150000051095F80690404600F079FF404600F038FF17
S3150000052022464946404600F041FF95F9098095F874
S315000005300890404600F06AFF404600F029FF224638
S315000005404946404600F032FFEFF3108087F31088EB
S315000005504FF000412A78574BD1405A6822EA0102EF
S315000005605A605B6880F31088236A9E70236A1E7146
S31500000570236A5E72236A9E72236ADE72236A5E8330
S3150000058040F239232A7897401F4202D04022236A3C
S31500000590DA740620012340F23922216A0877297885
S315000005A08B40134266D1EB786A78A978DB00022A81
S315000005B043EA01137AD0012A0CBFE221F221226A12
S315000005C0DBB21370236A9971E9690B7B082B69D03A
S315000005D0226A5B0003F00203537300204B788A788B
S315000005E0DB01520102F02002DBB21343226A1072D1
S315000005F00A78023A012A226A41D9DBB2D3714A68E3
S31500000600236A917859705078197860F3010119704E
S31500000610D1789974D979127801F0A30102F05C02BD
S315000006200A43DA710026C4E90366C4E90566E3698C
S31500000630EF6993F905003D7800F0CAFEE36905F01D
S31500000640030593F90B0000F0C3FEE36945F070055E
S3150000065093F9070000F0BCFEE36993F9090000F086
S31500000660B7FE3046226A144B95707A896360228100
S31500000670BDE8F8834FF47842236A9A8293E7FF2015
S3150000068050700A78022A08BF43F01003226ADBB2D0
S31500000690D371C7E7CA695268127812077FF5FCAEB4
S315000006A00320E5E70A22236A5A7396E7F22143F00C
S315000006B0400384E7004008405549435310B5EFF323
S315000006C00384103C64B2204600F062FE1B4B53F8D4
S315000006D02400C3691B699BB1036903B110BD026A9B
S315000006E00021937803F07F0343F004039370436A79
S315000006F0C160002BF2D0BDE810408022FFF7A2BEF9
S315000007000369026A002BEBD08378C16803F0030308
S31500000710022B0DD00B78D3708278D0E9031302F048
S3150000072003029B1A1144C0E90313002BD6D1D6E766
S315000007300B8843F47E43D381EEE700BFDC12002032
S3150000074010B582B0EFF30384103C64B2204600F08B
S315000007501FFE194B53F82440A27802F00303022B24
S31500000760236A0CBF198A5979A3690CBFC1F3080122
S31500000770C9B2019143B9636AB3B10422204602B0FB
S31500000780BDE81040FFF75EBE02F0030201A96069F2
S3150000079003F02FF8D4E90521A37803F003031A44E4
S315000007A0C91AC4E9052109B102B010BD636A002B5C
S315000007B0FAD00122E2E700BFDC12002010B5EFF309
S315000007C003840A4B103C64B253F82400026A9378FF
S315000007D003F07B039370436A1BB102220021FFF7EB
S315000007E031FE2046BDE8104000F0D2BDDC120020EC
S315000007F010B5EFF30384174B103C64B253F8240092
S31500000800837803F00303022B036A0CBF198A597914
S3150000081093F804C00CBFC1F30801C9B21CF0100F55
S315000008200CF0380206D093F81CC01CF0010F08BF6C
S3150000083042F0400293F804C00CF0C70C83F804C0E1
S31500000840436A0BB1FFF7FEFD2046BDE8104000F0FD
S315000008509FBD00BFDC1200200120CBB2984080B2C1
S3150000086002B900040B0A5B0103F1804303F5F83378
S3150000087098600020704700BF2DE9F8430388BBB19C
S3150000088007464FF00008DFF8789000241B4D4FEA2A
S31500000890C8067B6835F8022B99198988914209D0D8
S315000008A00134032CF5D13B8808F101084345ECD807
S315000008B0BDE8F8839B5904F1200203F0B853B3F165
S315000008C0807F19F812300CD0DB09E9D019F8123004
S315000008D0012123F08003C82009F8123000F00EFD34
S315000008E0DEE7DB09DCD119F81230012143F0800381
S315000008F0C82009F8123000F001FDD1E700600000C1
S3150000090000300840F8B50646FFF7B6FFEFF3108251
S31500000910012383F31088234F3B681BB92249CB7010
S315000009204023CB703B6801333B6082F310883388E9
S3150000093023B300211D4D08E01B01134445F8234055
S31500000940328801318BB29A4218D9736853F8314014
S3150000095003EBC1029288E0034FEA1223D2B2EBD531
S3150000096002EB031055F820E024F4803C2EF4803E80
S3150000097045F820E01B0145F820C0DEE7EFF31082C2
S31500000980012383F310883B6813B13B68013B3B604E
S315000009903B681BB980200449CB70C87082F310886D
S315000009A0F8BD00BFD812002000FD014000F801404C
S315000009B008B5034B03600846FFF7A4FF002008BDF7
S315000009C054524F5030B5836B83B004460A466D4689
S315000009D0A3B193E8030085E80300E16B1A7119607F
S315000009E01846636B9847A36B1BB195E8030083E831
S315000009F00300002384F82B3003B030BD2B46ECE710
S31500000A0030B5424B83B01B6A01690193019B03F029
S31500000A100F230193019A019D0B7C90F82C4094B909
S31500000A20C2F30322DBB2A2EB156293409B0804D10A
S31500000A30082003B030BD013BFAD04A78D209FAD17A
S31500000A40B323CB710169002390F82620846980F8CE
S31500000A502720026880F82B30C46180F82D3080F89A
S31500000A60283080F82E30036280F82F3080F830303E
S31500000A70546A227894F801E0012A14BF4FF0040C5E
S31500000A804FF0050C6279120142EA4E0294F806E034
S31500000A9042EACE124CEA0202D2B2CA7001690A795F
S31500000AA042F010020A7101690A7963F3C3020A71FE
S31500000AB001690A7963F304120A710269E17913790B
S31500000AC061F3C71313710269537943F0010353713C
S31500000AD0036893F90F30002B07DB012203F01F0494
S31500000AE00B495B09A24041F82320BF220369DA7152
S31500000AF090F82C302BB1002380F82C30002003B066
S31500000B0030BD022203695A70F8E700BF00E00140D9
S31500000B1000E100E090F808C0C0E90512BCF1010F41
S31500000B2080F82A300AD10022436880F826C05B008C
S31500000B3043F0010380F8243080F82520012380F853
S31500000B402930FFF75DBF00BF2DE9F0414FF01F08C8
S31500000B505F274FF0DF0E03690D4683F800800369B7
S31500000B6004461F7003692A4E83F800E00368016992
S31500000B705B6A00221B794FF0B30C43F0E0030B7461
S31500000B80036801695B6ADB7843F0E0034B74036832
S31500000B9001695B6A9B781B0103F0700343F008034D
S31500000BA08B70036801695B6A18780128587814BF4E
S31500000BB00423052343EA4003DBB2CB702368216993
S31500000BC05B68B34214BF7723F7234B7123699A718D
S31500000BD02369224683F807C0697B95F9110000F066
S31500000BE025FC2246697B95F90F0000F01FFC224682
S31500000BF0697B95F9100000F019FC2246697B95F98E
S31500000C000E0000F013FC9F2223691A70BDE8F081E4
S31500000C1040420F0070B500250A78016002F5800297
S31500000C2002F51F62120202618A68044642600A7B6C
S31500000C300272CA6942630A6AC0E90E52EFF3108C67
S31500000C40012282F310880B78C3F109039A400D4BF9
S31500000C505E6826EA02025A605B688CF31088FFF72A
S31500000C6073FF094BC4E9075584F82950656184F878
S31500000C702A50A56184F82B50E36084F82C5028464E
S31500000C8070BD00BF004008404349495290F808C073
S31500000C90C0E90512BCF1010F80F82A3008D1002204
S31500000CA0436880F826C05B0080F8243080F8252051
S31500000CB0002380F82930FFF7A3BE00BF30B583B00C
S31500000CC0EFF30380103840B200F062FBEFF30383CA
S31500000CD0524A103B5BB252F8234094F82D305BBB6E
S31500000CE0A369022B22D9E369012B0ED1226913795C
S31500000CF043F0100313712269137943F0080313714B
S31500000D002269137923F01003137123685B6ADB7978
S31500000D10002B3ED101222369DB7CDBB28DF8073044
S31500000D209DF8073084F82D2003B030BD2269137971
S31500000D3043F040031371D6E7E569002DF4D023682C
S31500000D405B6ADB79FBB9032D17D0022D26D0012D66
S31500000D5034D02269236AD17C6269D154D4E907323E
S31500000D600132013BC4E90732002BDDD121690A7942
S31500000D7063F386120A7103B030BD2269137943F01A
S31500000D8040031371E5E705212046FFF71BFEE569E1
S31500000D90D9E705212046FFF715FEBBE7226913793F
S31500000DA043F0100313712269137943F0080313719A
S31500000DB02269137923F010031371CAE794F82A30D5
S31500000DC043B908212269537A03F0F7035372236962
S31500000DD05970BEE7236893F90F0000F017FB042152
S31500000DE02269D37943F08003D3712269137943F0E2
S31500000DF0100313712269137923F008031371226912
S31500000E00137923F0100313712369597022695379FA
S31500000E1023F00103537184F82C509AE7DC1200206A
S31500000E2010B5EFF30380103840B200F0B1FAEFF3DB
S31500000E300383384A103B5BB252F8234094F82730BC
S31500000E40002B37D194F82930002B32D123685B6A06
S31500000E50DB792BB194F82B3013B9236A002B53D1CD
S31500000E60E3692169002B38D1CB79C02223F08003B6
S31500000E70CB71216901E0013A02D0CB79DB09FAD1C5
S31500000E80236893F9100000F083FA236893F9103071
S31500000E90002B09DB01215A091F4803F01F036032AA
S31500000EA001FA03F340F822302269D37943F0400374
S31500000EB0D37110BD94F82630032B1CD094F824204F
S31500000EC023699A7494F8282094F827300132013B5C
S31500000ED084F8282084F8273010BD236A6269D35C21
S31500000EE08B74D4E907320132013BC4E90732002B87
S31500000EF0DFD12169B8E794F82830022BDED194F8C7
S31500000F003030002BDAD110BD05212046FFF75AFDFF
S31500000F10A6E700BFDC12002000E100E038B5EFF3E1
S31500000F200383294A103B5BB252F8234023685B6A6D
S31500000F30DB794BBB94F829301BB194F82730012B91
S31500000F4027D0E569A5B12169C023CA7922F04002FC
S31500000F50CA71216901E0013B02D0CA795206FAD46E
S31500000F60EFF30380103840B2BDE8384000F010BA05
S31500000F7094F82A3093B908212269537A03F0F703CB
S31500000F80537223695970DEE705212046FFF71AFDE3
S31500000F90D0E794F83030002BD5D0D2E7236893F908
S31500000FA00F0000F033FA042001212269D37943F0BF
S31500000FB08003D371236958702269537965F300035E
S31500000FC0537184F82C10BEE7DC12002070B5EFF3E5
S31500000FD00383494A103B5BB252F823402269537A95
S31500000FE0517ADD0601F0E0015172D8B203F0030236
S31500000FF026D523695978490642D40025012684F866
S315000010002B60DD7120462168FFF79EFDB32294F820
S315000010102630A16984F82830236984F82C5021628F
S31500001020E56184F82A5031462046DA71FFF7CAFC9A
S31500001030EFF30380BDE87040103840B200F0A8B965
S31500001040002A56D103070FD594F82B30002B3FD139
S31500001050B32294F829102369C1F10301C9B2DA71E8
S315000010602046FFF7AFFCE3E794F82C3000F00400CD
S315000010702BB30028DCD094F82B30002B37D1E7E7D0
S31500001080002ABAD15A78C2F380115206DAD508225C
S3150000109084F82B105A70236821695A6A907913785C
S315000010A0527943EAC01343EA021343F00203DBB268
S315000010B0CB702269537943F001035371B8E70028D6
S315000010C0B6D023685B6ADB79002BB1D00421C7E771
S315000010D00023B32194F82650A069226984F82C30A5
S315000010E084F828502062E36184F82A30D171012106
S315000010F0B6E7236981E700BFDC120020064B0749EB
S3150000110093F826001A6A51F82030C2F302620449A5
S31500001110D3400B60704700BF00E00140DC010020B7
S31500001120E8130020704700BF2DE9F04101224AF282
S3150000113003584FF400414FF0080C09263C4C3D4B38
S315000011403D4D3E48DFF808E16560E5603C4FA3F899
S31500001150FE83826002608EF8C82F3A4A2760A1603B
S315000011602161626193F82620196A54F82220364DCF
S31500001170C1F30261CA402A6083F813C483F8A260EF
S3150000118093F880241AB993F881349F074BD0294EDF
S3150000119096F88034002B3BD00022264B83F881241E
S315000011A083F88024234991F8A030DE06C3F30010AB
S315000011B0F9D4204A81F8A00092F8A030D906C3F3EA
S315000011C00010F9D41B4982F8320091F83C301A0716
S315000011D0FBD54FF470600023164A088581F82A3043
S315000011E092F83C309B06FBD505234FF42540174962
S315000011F0116282F8263092F82630116A54F82330AC
S31500001200C1F30261CB402B60A2F8FE03BDE8F0817A
S315000012100121C82086F8801400F070F896F8803412
S31500001220012BFBD1B8E74FF47A70FFF77BFFB9E7E4
S31500001230DC01002000E0014000127A00007000404E
S31500001240006CDC020090D003E8130020211200217C
S3150000125000F07E4038B50025224C0121C82084F8D4
S31500001260285000F04BF884F8245094F82430002BD2
S31500001270FBD194F824301B4943F0020384F8243050
S3150000128091F82430C3F340009B07F9D4154A81F83E
S31500001290220092F8223003F0FF00002BF9D192F8D9
S315000012A04030104960F3C71382F8403091F840305F
S315000012B0DB09FBD191F842000A4A63F3C71081F8B3
S315000012C0420092F84230DB09FBD192F8440005490E
S315000012D063F3C71082F8440091F84430DB09FBD170
S315000012E038BD00BF00300840704700BF00BEFEE7B3
S315000012F0A0F101000028FBD1704700BF4FF47A73BC
S3150000130010B400FB01F1114C114A2468B2FBF4F24F
S31500001310A1FB03043CB9B0FBF2F0800860B15DF8B4
S31500001320044BFFF7E5BF9200B1FBF2F1A1FB0313FB
S315000013302BB908460028F2D15DF8044B70474FF0F0
S31500001340FF3C5DF8044B6046FFF7D2BFE813002070
S3150000135000CA9A3B70B500240B4B0C4EB3F8202103
S31500001360B3F84051ADB2154025FA04F3DB0704D5B6
S3150000137056F82430E0B203B198470134102CF3D16B
S31500001380014BA3F8305170BD006000409812002058
S31500001390054BC03053F8202022F4803243F8202039
S315000013A053F82030704700BF0060004010B40901B8
S315000013B0064C00F16043C9B203F5614383F800139C
S315000013C044F820205DF8044B704700BFDC12002073
S315000013D00D4B00F1C00253F8221021F4803143F87E
S315000013E0221053F82230BFF35F8F012243099B007E
S315000013F000F01F0003F1604303F561438240C3F828
S3150000140080211A60704700BF006000400122064933
S31500001410430900F01F008240203341F82320BFF328
S315000014204F8FBFF36F8F704700E100E010B400F1FB
S31500001430604C134C0901134BC9B20CF5614C8CF886
S31500001440001300F1C00144F8202053F8212022F4B3
S31500001450803243F8212053F82130BFF35F8F0122F9
S3150000146043099B0000F01F0003F1604303F561434D
S315000014708240C3F880211A605DF8044B704700BFB4
S31500001480DC1200200060004030B5032083B000F07D
S3150000149077F86FF0FF054FF0FF311D4C0023224611
S315000014A04FF0010E1B488564CDE9001104F180055B
S315000014B032F8020F590960B102A800EB810151F818
S315000014C0080C03F01F0C0EFA0CFC20EA0C0041F885
S315000014D0080CAA4203F10103EAD1009A0E4B0D490A
S315000014E003200A67C3F88022019A4A67C3F8842258
S315000014F000F016F80023094834F8022F03F1C00162
S3150000150001330AB140F82120AC42F5D103B030BD19
S315000015107E5F00000080004000E100E000600040C7
S31500001520EFF31081012383F31088124B33F8102058
S3150000153092B22AB133F81020013A92B223F8102061
S3150000154033F810309BB293B910B40B4A0B4CB2F877
S31500001550FE3334F810009BB243F4254323EA00031C
S31500001560A2F8FE3381F310885DF8044B704781F3CF
S3150000157010887047DC13002000E00140086000007E
S3150000158030B4EFF31081012383F310880E4A32F84A
S3150000159010309BB26BB90D4C0D4DB4F8FE3335F8D7
S315000015A010C09BB243EA0C0343F425439BB2A4F854
S315000015B0FE3332F8103001339BB222F8103081F33B
S315000015C0108830BC704700BFDC13002000E00140EB
S315000015D00860000008B50C4A0346106840B10333A2
S315000015E00A4923F0030303448B4205D8136008BD60
S315000015F0074908461160F2E702F0E4F80C220346B8
S315000016001A604FF0FF3008BDE41300203835002083
S315000016103815002000BE704708B500F003F8FEF745
S31500001620E3FEFEE74FF4700270B52B4B2B4CC3F86C
S31500001630882000209C60FEF7CBFEFFF775FD012099
S31500001640FEF7C6FE2368A3F5204383F30A882448E1
S31500001650244A0021121A02F063F82348234A244937
S31500001660121A02F0C6F8234D234B5B1B002B07DD35
S3150000167000249E1055F8043B01349847A642F9DC35
S31500001680FFF73CFDFFF7E6FD0320FFF779FF002398
S315000016904FF6FF70194903F108020133092B21F8AF
S315000016A01200F8D100240320FFF73AFF0320FFF7CA
S315000016B067FF134B03205C609C60DC601C61FFF7D6
S315000016C02FFF0220FEF784FEFFF7DEFE2046BDE870
S315000016D07040FFF709BE00BF00ED00E0000000000B
S315000016E0F80100203815002000000020DC01002051
S315000016F028BE0100D4010020D801002000FD0140D1
S3150000170000000E402DE9F04FC926002481460D4603
S3150000171083B000939DF830B000F5A0639DF834A027
S3150000172000EB02080193DDE900122B46484601F062
S31500001730E5F80A210746484601F066F9013E47EA00
S315000017400002224316F0FF06D4B215D0042D03D1B1
S3150000175099F802257E2A09D898F800250BEA020294
S315000017605245E0D1204603B0BDE8F08F44F0420474
S31500001770204603B0BDE8F08F44F00104204603B0D4
S31500001780BDE8F08F2DE9F04F044688465E4BEDB07C
S3150000179003F1080608AF93E803000AAD87E80300E3
S315000017A096E8030004F5A06685E803004FF4F4729A
S315000017B0304604F1100102F01CF8B8F1100F24D0E5
S315000017C004F5A1614FF4F272304601F08FFF03CDAC
S315000017D03246C4F8E006C4F8E4164FF4F473204623
S315000017E042F6186101F038F80327FF2605464FF444
S315000017F03053012204212046CDE90067FFF782FF1E
S315000018002843C0B26DB0BDE8F08F03CF04F23C5759
S31500001810C4F81005C4F8141530464FF4F47101F0FD
S31500001820D7F804F5C86839464FF480722CA801F041
S31500001830E0FF414680220CA801F0DBFF00210CA846
S31500001840BB460696CDF81C800646884627460DF10F
S31500001850B0090DF1D00AB6460446CC46CDE903865A
S31500001860AAF120010590CDF808B048680A680E6A0A
S31500001870B4F90080B4F90230B4F910B0024432442D
S315000018804344B4F91260486A5B449B1948BF03336A
S315000018900244083192089B108A454CF8042B04F147
S315000018A004042EF8023BE0D1DDE902B8DDE904606C
S315000018B008F10408B8F1100F09F1100900F1200031
S315000018C006F108060AF1400AC5D1DDE9066860227C
S315000018D0002114A801F024FFC02200213CA801F039
S315000018E01FFF2CA94FF48072584601F082FF0CA905
S315000018F08022404601F07DFF4FF4F47130463C46AD
S3150000190001F066F85CE700BF0CB701002DE9F04175
S3150000191004468846C6B03E4A3E4B02AF04AE04F5C6
S31500001920A06592E803004FF4427287E8030093E84B
S31500001930030086E80300284604F5FC7101F059FF10
S31500001940B8F1100F18D02A464FF4427342F6F84108
S31500001950204600F081FF0327FF2605464FF430534B
S31500001960012204212046CDE90067FFF7CBFE28437C
S31500001970C0B246B0BDE8F08103CF0027C4F8080521
S31500001980C4F80C1503CE04F23456C4F82005C4F886
S31500001990241528464FF4427101F01AF84FF480726C
S315000019A0314606A801F025FF0DF1180E0DF1380C91
S315000019B07146ACF12002D2E900300344106A0832C5
S315000019C00344D069944503444FEA930341F8043B2A
S315000019D0F1D10437102F0EF1100E0CF1400CE7D1A7
S315000019E0C022002116A801F09BFE4FF4807206A9C2
S315000019F0304601F0FEFE4FF44271284600F0E8FF43
S31500001A000023054AC4F87835C4F834269BE700BF9E
S31500001A106C5E00001CB70100A0FC010070B500223E
S31500001A2082B00D4647F6FF71064600F0D3FE002150
S31500001A3004460DF10602304600F064FE01210DF168
S31500001A4007020443304600F05DFE0346022247F6D5
S31500001A50FF713046E4B21C4300F0BCFE03469DF81D
S31500001A6007200E489DF80610E4B21C4301F0EEFC78
S31500001A709DF80630E4B2F02B04D0002320462B70EC
S31500001A8002B070BD9DF807302046A3F10C03B3FAEF
S31500001A9083F35B092B7002B070BD00BF785E000057
S31500001AA038B50446042300F5A0620D46002100F077
S31500001AB025FFA27894F800359A4294F8032505D0BC
S31500001AC0FF2B03D094F80135052B08D0130603D558
S31500001AD094F802351843C0B200232B7038BD94F831
S31500001AE0023503F00503052BF0D1D106EED501230F
S31500001AF02B7094F80035A37038BD00BF2DE9F84F60
S31500001B00044600F5A0673A4643680D46002100F0FA
S31500001B10F5FE94F800350646A1883846A37000F015
S31500001B2057FFD4F804C0BCF1100F59D910234DF655
S31500001B30C4374EF244084EF284091CE045F2D051F7
S31500001B408A4200F0E08000F2A68045F2B4418A4263
S31500001B5000F0EF8045F2D0418A4208D103F20453E7
S31500001B605246E118281D01F044FED4F804C00AEBE1
S31500001B700B039C4534D903F5A061605C625A00F002
S31500001B800F00C2F30B1E00F10E0202F00F022144F9
S31500001B900A2A4A88F24698BF1EFB00FABA4203F1A7
S31500001BA0040B00F09A80C9D9424500F0B78000F2D4
S31500001BB086804DF6C4618A4200F0C2804DF64471BB
S31500001BC08A42D4D103F20453E118524605F57170E6
S31500001BD001F00FFED4F804C00AEB0B039C45CAD8EB
S31500001BE02B4605F5807153F8042FD20A99421A60E4
S31500001BF0F9D105F2C2318E4605F2423205F2434C66
S31500001C0005F5107031F9023F002BB8BF03339B1066
S31500001C100B801CF8013F5B088CF8003032F8023F5D
S31500001C20DB09138050F8043F96454FEAD32303603F
S31500001C30E8D1FF2005F2031305F2431101E09942B2
S31500001C4007D013F8012F002AF9D1994283F88003AF
S31500001C50F7D1414905F2CC4205F24C5552F8043F02
S31500001C60A1FB0303AA424FEAD3331360F6D162689D
S31500001C70B4F80835144494F8FC1494F8FD245BBABF
S31500001C809BB242EA012293421CBF46F00206F6B21C
S31500001C903046BDE8F88F4DF658018A4228D04DF6F9
S31500001CA084318A427FF463AF03F204535246E1184B
S31500001CB005F5827001F09DFDD4F804C057E74A454A
S31500001CC07FF455AF03F204535246E11805F28440FF
S31500001CD001F08FFDD4F804C049E703F204535246DD
S31500001CE0E11805F5117001F084FDD4F804C03EE753
S31500001CF003F204535246E11805F2C44001F079FD9F
S31500001D00D4F804C033E703F204535246E11805F54C
S31500001D10A27001F06EFDD4F804C028E703F2045364
S31500001D205246E11805F2444001F063FDD4F804C0C0
S31500001D301DE7234493F80C352B70D4F804C016E73E
S31500001D4003F204535246E11805F5517001F051FDB6
S31500001D50D4F804C00BE700BF018000802DE9F043F2
S31500001D601C46DFF8B4C087B003AEB4F5B46F0746BF
S31500001D700D4613469CE8070086E8070004D9FF26AF
S31500001D80304607B0BDE8F0830021180A60F307016A
S31500001D9063F30F21231163F31741230163F31F61DB
S31500001DA032460C230391384642F6F47100F054FD96
S31500001DB00323FF220646CDE9002304214FF43053C6
S31500001DC001223846FFF79EFC07F5A06804F10C09CE
S31500001DD042F6044106434B464246384600F08EFD25
S31500001DE0F6B206431FFA89F14046F6B200F0F0FD5E
S31500001DF0002CC5D0013C07F2035207F2045717FA2C
S31500001E0084F4691E12F8013FA24201F8013FF9D19C
S31500001E10304607B0BDE8F08324B701002DE9F04154
S31500001E20B3F5B46F82B004D9FF24204602B0BDE8F2
S31500001E30F08100271C460D465FFA83F8130A63F308
S31500001E40070762F30F27231163F3174706464FEA86
S31500001E5008132146284663F31F6700F0B9FD4FF6C5
S31500001E60FF7304F1FF3C1FFA8CFC9C450BD00CF170
S31500001E7001020CF2055C2A44B44412F8013DAA4260
S31500001E800CF8013DF9D14FF0706204F20453C6F824
S31500001E900075F25040F2051233449A80C4F53F5162
S31500001EA004F1080208F108081212343183F8078099
S31500001EB09A71304604F10C0306F5A06289B200F06F
S31500001EC0CBFC03220346FF210192009101223046FA
S31500001ED004211E464FF43053FFF714FC214646EA10
S31500001EE00004E4B2284600F073FD204602B0BDE8C7
S31500001EF0F08100BF2DE9F0474FF0000901264FF0B1
S31500001F000114E34BE34A86B0C0E9023247F6FF719B
S31500001F104A4680F8AC9A0546CDE9044600F05AFCDC
S31500001F20042209210446284600F054FC40220F21D1
S31500001F300443284600F04EFCE4B203220A2104437F
S31500001F40284600F047FCE4B247F6FF7104430DF162
S31500001F500D02284600F0D6FBE4B232460C210443BB
S31500001F60284600F037FCE4B24A4640F20111044329
S31500001F70284600F02FFCE4B24A464FF48171044330
S31500001F80284600F027FCE4B232464FF4857104433C
S31500001F90284600F01FFCE4B2324644F20201044334
S31500001FA0284600F017FCE4B24A4644F20201044314
S31500001FB0284600F00FFCE4B203224FF48571044377
S31500001FC0284600F007FCE4B2324640F2031104430F
S31500001FD0284600F0FFFBE4B24A460C21044328469B
S31500001FE000F0F8FBE4B243220F210443284600F038
S31500001FF0F1FBE4B231460443284600F005FDE4B2A5
S3150000200040220F210443284600F0E4FBE4B23246A6
S315000020100A210443284600F0DDFBE4B264210443B0
S31500002020284600F0F1FCE4B2044347F6FF714A4645
S31500002030284600F0CFFBC926E4B204435FFA84F8D1
S3150000204005F5A06701233A460621284600F056FC0E
S315000020500A210446284600F0D7FC013E044349EA1B
S31500002060040416F0FF065FFA84F900F0FA8195F889
S3150000207000A5BAF1010FE5D158EA090440F0ED8157
S3150000208052460E21284600F0A5FB022247F6FF71B4
S315000020908046284600F09EFB524647F6FF7148EA06
S315000020A00008284600F096FB5FFA88F8524648EA90
S315000020B000080621284600F08DFBA1464FF0C90A0C
S315000020C05FFA88F848EA00085FFA88F801233A467A
S315000020D02121284600F012FC0A210646284600F077
S315000020E093FC0AF1FF33064349EA060613F0FF0A9A
S315000020F05FFA86F900F0228295F80035042BE5D1C7
S31500002100002247F6FF71284600F064FB48EA0908FA
S3150000211048EA000847F6FF710DF10D02284600F067
S31500002120F1FA5FFA88F601220C210643284600F0F0
S3150000213051FBF6B2002247F6FF710643284600F02F
S3150000214049FBF6B2002240F201110643284600F090
S3150000215041FBF6B200224FF481710643284600F097
S3150000216039FBF6B201224FF485710643284600F08A
S3150000217031FBF6B2012244F202010643284600F082
S3150000218029FBF6B2002244F202010643284600F07B
S3150000219021FBF6B203224FF485710643284600F070
S315000021A019FBF6B2012240F203110643284600F05D
S315000021B011FBF6B2002244F20F010643284600F056
S315000021C009FBF6B2432240F21A210643284600F0E4
S315000021D001FBF6B2032240F21A210643284600F01C
S315000021E0F9FAF6B2012240F21A210643284600F017
S315000021F0F1FAF6B2002240F21A210643284600F010
S31500002200E9FAF6B2002240F219210643284600F008
S31500002210E1FAF6B2002240F21B210643284600F0FE
S31500002220D9FAF6B2002247F6FF710643284600F0B7
S31500002230D1FAF6B247F6FF7106430DF10D022846B4
S3150000224000F060FAF6B2012247F6FF71064328460F
S3150000225000F0C0FAF6B2092247F6FF710643284697
S3150000226000F0B8FAF6B24FF4004300210A4A0643DA
S31500002270284600F0F1FAF6B20A2247F6FF71064345
S31500002280284600F0A7FAF6B24FF40043002105E015
S3150000229040630000386000000C670000A94A06434E
S315000022A0284600F0D9FAF6B20B2247F6FF7106432C
S315000022B0284600F08FFAF6B24FF4A0430021A24A56
S315000022C00643284600F0C8FAF6B2012247F6FF7127
S315000022D00643284600F07EFAF6B2012247F6FF7161
S315000022E00643284600F076FAF6B203220621064394
S315000022F0284600F06FFAF6B205210643284600F09C
S3150000230083FBF6B2002247F6FF710643284600F02B
S3150000231061FAF6B247F6FF7106430DF10D02284643
S3150000232000F0F0F9F6B201220C210643284600F02F
S3150000233051FAF6B2002247F6FF710643284600F02E
S3150000234049FAF6B200224FF48A710643284600F095
S3150000235041FAF6B2002240F215110643284600F073
S3150000236039FAF6B242224FF48B710643284600F042
S3150000237031FAF6B2002240F217110643284600F061
S3150000238029FAF6B200220B210643284600F022FA6B
S31500002390F6B247F6FF7106430DF10D02284600F02E
S315000023A0B1F9F6B200220C210643284600F012FAD3
S315000023B0F6B2064301220B21284600F00BFAF6B2CC
S315000023C006434FF4FA78F6B20FE00121284600F0F2
S315000023D01BFB9DF80E3008F1FF3813F0010F1FFAB2
S315000023E088F81AD1B8F1000F17D0062128460DF14A
S315000023F00E0200F087F99DF90E302043002BC4B27F
S31500002400E3DA072128460DF10F0200F07BF99DF86B
S315000024100F302043DB07C4B2D7D5264316F0FF049E
S315000024201BD1022247F6FF71284600F0D3F9042398
S315000024303A4642F6FC710646284600F05FFA042149
S315000024400643384600F0C4FA404BD5F800255FFA3B
S3150000245086F89A420DD048F00504204606B0BDE83D
S31500002460F08748EA090949F00104204606B0BDE8AC
S31500002470F087282342F6D871354A284600F0ECF951
S31500002480FF260223224604210446019328464FF4E0
S3150000249030530096FFF736F94FF4F6733A4642F694
S315000024A004410443284600F029FA48EA0404E4B249
S315000024B04FF4F4723946044305F1100001F099F91E
S315000024C010212846FFF75EF9E4B24FF44272214923
S315000024D0044305F5FC7001F08CF910212846FFF73E
S315000024E015FAE4B24FF4737342F63441AA68044312
S315000024F0284600F0B1F90327E4B24FF43053012225
S3150000250004210443009628460197FFF7FBF8E4B23E
S3150000251004234DF68032044304A92846FFF77EFCC7
S315000025200146E4B20C4304234DF66412284605A97D
S31500002530FFF774FCE4B20443E4B28EE749F0010904
S31500002540DEE500BF0CE700000C6701009E6C0B0C7B
S315000025501060000030B701004FF440712DE9F04FD4
S31500002560002600279BB0082345F25042079100F54C
S31500002570A0610546CDE908670291FFF7EFFB00224F
S31500002580FF21944640F6FF785D4B95F800A56A60FA
S3150000259095F8012503F110070EAE0DF128091AFB77
S315000025A002FAA97003900FCB89E80F000FCF0FC670
S315000025B00FCF0FC697E80F005FFA8AFBDA4664462C
S315000025C086E80F000DF1340ECDF828800FE00C2AB6
S315000025D01BD8BEF800100BFB02C36AF30F11AEF84E
S315000025E000106B6003F1040C01340C2C12D05EF861
S315000025F0043F28FA04F2002BF6D0D207F4D59EF851
S31500002600003003F00F021B07E1D1BEF800300CEBDF
S315000026101313E6E70CF118034DF680126B600EA952
S3150000262030232846FFF7FAFB0D2309936B684DF616
S315000026306812089308A9082382462846FFF7EEFB8E
S31500002640102349464DF6701281462846FFF7E6FBF1
S31500002650002247F6FF718046284600F0BBF80522A7
S3150000266009218346284600F0B5F8022247F6FF7195
S315000026700490284600F0AEF8042342F6FC7105905B
S3150000268007AA284600F0E8F8FF26032301220421C2
S31500002690019307464FF4305328460096FFF732F869
S315000026A0234645F24042044602992846FFF756FB68
S315000026B0B5F808256B689A4211D1039B4AEA090AC4
S315000026C043EA0A0348EA0308049B059A4BEA080B07
S315000026D043EA0B031A4317433C43204306400823AF
S315000026E04EF2C40228460299FFF738FB95F80635E4
S315000026F00643F0B20BB140F003001BB0BDE8F08F0B
S3150000270038BA010070B50C4682B016460123022283
S31500002710294801A964BAADF80440FEF7B7FAC0B279
S3150000272000283DD1254D264C297803290BD0236856
S3150000273073B301210846FEF7E1FD23682978013BC2
S3150000274003292360F4D101221E4B694623601A48EF
S3150000275000232A70FEF7DEF9C0B238BB2A78022AB7
S315000027600CD02368C3B14FF47A710120FEF7C6FD81
S3150000277023682A78013B022A2360F3D10122002034
S31500002780104B2A7023609DF80030337002B070BD84
S315000027900129D8D100BED6E7012AEFD100BEEDE768
S315000027A02A21094B094A0A48FEF7A0FD3C21064B9F
S315000027B0064A0748FEF79AFD58120020040000203A
S315000027C00000002040420F009C5E0000B0BA0100ED
S315000027D0B45E000030B50C46154683B000230322D4
S315000027E0164801A964BAADF804408DF80650FEF704
S315000027F04DFAC0B2D8B9124D124C2A78032A0BD022
S31500002800236883B101210846FEF778FD23682A78FC
S31500002810013B032A2360F4D1012300200A4A2B70CE
S31500002820226003B030BD012AF6D100BEF4E7632171
S31500002830064B074A0748FEF759FD00BF581200200D
S31500002840040000200000002040420F009C5E0000B3
S31500002850A0BA0100B45E0000F8B50D46114603F1BA
S31500002860090222F0070200AF2E0AADEB020D9C1CF6
S315000028701A468DF800600DF102008DF8015000F047
S31500002880B8FF0123224669461548FEF7FFF910F006
S31500002890FF061FD10123134D134C144A2B702260DF
S315000028A001210846FEF72AFD23682A78013B032A00
S315000028B0236003D0002BF3D1012A06D00123304632
S315000028C00A4A2B702260BD46F8BD00BEFF26304680
S315000028D0BD46F8BD8B21064B064A0748FEF706FDA6
S315000028E058120020040000200000002040420F0083
S315000028F09C5E00008CBA0100B45E0000F0B50C4688
S3150000290083B016461F46022200232A4801A964BA4C
S31500002910ADF80440FEF7BAF9C0B200283DD1012354
S31500002920254D264C264A2B70226001210846FEF7CB
S31500002930E5FC206895F800C00138BCF1030F206063
S3150000294009D00028F1D1BCF1010F04D100BEFF2649
S31500002950304603B0F0BD314601233A461548FEF72E
S31500002960D9F810F0FF061ED10123154A2B702260FC
S3150000297001210846FEF7C2FC23682A78013B022A99
S31500002980236003D0002BF3D1012ADFD00123304688
S315000029900B4A2B70226003B0F0BDB521094B0A4AE1
S315000029A00A48FEF7A3FCC921064B074A0748FEF76B
S315000029B09DFC00BF581200200400002000000020EB
S315000029C040420F009C5E000078BA0100B45E000031
S315000029D0C1B100B54A1E22F00302031D1A44437812
S315000029E090F800E090F803C01B04817843EA0E6378
S315000029F043EA0C0343EA012340F8043B8242EED14A
S31500002A005DF804FB704700BF08B508464FF47A71BD
S31500002A10FEF774FC002008BD2DE9FF4757EC106B4C
S31500002A20002F0C4619463B46B4BF07F1004300236E
S31500002A309146BFBF32461F462D231646DDF830A00D
S31500002A400B700D9B23F02008B8F1460F05D0B8F1A6
S31500002A50450F00D10134022100E0032103AB2246D9
S31500002A60019302AB47EC106B0093534600F064FFF2
S31500002A70B8F1470F054619D119F0010F0ED000EB3A
S31500002A800409002200233046394603F0A3F808B1B2
S31500002A90CDF80C903022039B4B451ED3039B284652
S31500002AA00E9A5B1B136004B0BDE8F087B8F1460FC1
S31500002AB000EB0409E5D10378302B0AD1002200236C
S31500002AC03046394603F086F818B9C4F10104CAF84D
S31500002AD00040DAF800309944D3E7591C03911A7084
S31500002AE0D9E7F7B500290270BABF49422D232B2337
S31500002AF00929437028DD0DF107030A271D461A46EA
S31500002B00013BB1FBF7F607FB1614303402F8014C13
S31500002B100C463146632CF2DC3031941E03F8011C5E
S31500002B20411C2346AB420AD30DF109039B1AAC4262
S31500002B3088BF002302330344181A03B0F0BD13F80C
S31500002B40016B01F8016FEDE7302330318370031D0F
S31500002B50C170F1E72DE9F04F8DB00C4616461F46C1
S31500002B60DDF85880054600F0E3FD03681846049337
S31500002B7000F04CFE002305900A93D8F8003094F834
S31500002B8018A00733D4F800B023F0070303F10802B6
S31500002B90C8F800204FF0FF32D3E9008929F000433E
S31500002BA0CDF8188007939D4BDDE90601C4E912892B
S31500002BB003F042F870BB4FF0FF32984BDDE9060197
S31500002BC003F01CF830BB002200234046494603F0C0
S31500002BD00BF810B12D2384F84330914A914BBAF18A
S31500002BE0470F8CBF9046984603234FF00009236198
S31500002BF02BF00403236033460BAA21462846009790
S31500002C0000F0D2F9013040F08D804FF0FF300DB06A
S31500002C10BDE8F08F42464B464046494603F00CF865
S31500002C2040B14B46804A002BBCBF2D2384F843306D
S31500002C307E4BD4E70AF0DF02636806925A1C3BD14A
S31500002C40062363604BF480620023284622600393C8
S31500002C500AABCDE901A309AB49EC108B00930DF14A
S31500002C6023036168FFF7D8FE069B80460999472B28
S31500002C7029D1C81C02DB6368994241DDAAF1020A28
S31500002C805FFA8AFA0139524604F150000991FFF7BA
S31500002C9028FF0A9A81461318012A236102DC22685A
S31500002CA0D20701D5013323619DF82330002BA2D032
S31500002CB02D2384F843309EE7069A472AC2D1002B7B
S31500002CC0C0D10123BDE7BAF1650FDBD9BAF1660FB2
S31500002CD018D1002963680BDD216113B92268D0077A
S31500002CE002D501330B4423614FF00009A165DBE7F0
S31500002CF013B92268D20701D50233F4E70123F2E7BC
S31500002D004FF0670A0A9B994205DB23682161D807C1
S31500002D10EAD54B1CE7E70029D4BFC1F10202012224
S31500002D201344E0E723685A0507D42369424631462F
S31500002D302846B84701302BD167E7BAF1650F40F254
S31500002D40DD8000220023D4E9120102F043FF0028AF
S31500002D5033D00123364A31462846B84701303FF47E
S31500002D6054AFDDE90938434502DB2368D8070FD5A0
S31500002D7031462846DDE90423B84701303FF445AF24
S31500002D804FF0000908F1FF3804F11A0AC84509DCBA
S31500002D9023689B0700F10381E0680B9B9842B8BF4C
S31500002DA0184634E70123524631462846B8470130D3
S31500002DB03FF42BAF09F10109E8E7099B002B39DC49
S31500002DC001231B4A31462846B84701303FF41DAF60
S31500002DD0DDE9093959EA030302D12368D907D7D5B2
S31500002DE031462846DDE90423B84701303FF40DAFEC
S31500002DF04FF0000A04F11A0B099B5B42534501DCB4
S31500002E004B4693E701235A4631462846B8470130D8
S31500002E103FF4FBAE0AF1010AEEE700BFFFFFEF7FCA
S31500002E20C4BA0100C0BA0100CCBA0100C8BA010098
S31500002E30D0BA0100A36DDDF828A05345A8BF5346BC
S31500002E40002B994636DC4FF0000B29EAE97904F1AC
S31500002E501A02A36D0693A3EB09035B4531DC099BBC
S31500002E609A453ADC2368DA0737D4099BAAEB0309AB
S31500002E70069BAAEB03039945A8BF9946B9F1000F33
S31500002E8033DC4FF0000829EAE97904F11A0B099BB3
S31500002E90AAEB0303A3EB090343457FF779AF0123AD
S31500002EA05A4631462846B84701303FF4AEAE08F1DF
S31500002EB00108ECE7424631462846B8470130C2D100
S31500002EC0A3E60123314628460692B84701303FF46F
S31500002ED09CAE0BF1010B069ABBE7DDE904233146F4
S31500002EE02846B8470130C0D18FE6069A4B46314690
S31500002EF028464244B8470130C3D186E6DDF828A00B
S31500002F00BAF1010F01DCDB0736D501234246314613
S31500002F102846B84701303FF478AE31462846DDE909
S31500002F200423B84701303FF470AE002200230AF1B3
S31500002F30FF3AD4E9120102F04DFEC0B9534608F13A
S31500002F40010231462846B84701300CD15DE601231F
S31500002F505A4631462846B84701303FF456AE08F186
S31500002F600108D045F3DB4B4604F15002DFE64FF093
S31500002F70000804F11A0BF4E701234246E1E70123B6
S31500002F804A4631462846B84701303FF43EAE08F17E
S31500002F900108E3680B995B1A4345F0DCFCE64FF049
S31500002FA0000804F11909F4E72DE9F047164698469A
S31500002FB08A6807460B690C46DDF820909342B8BF35
S31500002FC01346336091F843200AB101333360236816
S31500002FD0990642BF336802333360256815F006054B
S31500002FE006D104F1190AE36832689B1AAB422BDC5E
S31500002FF094F843302268003B18BF0123920630D470
S3150000300004F1430241463846C847013023D02368BD
S315000030101A3454F80A2C03F00603042B0ABF54F89A
S315000030200E5C002533684FF0000608BFED1A54F811
S31500003030123C08BF25EAE5759342C4BF9B1AED18FA
S31500003040B5421AD1002008E00123524641463846CF
S31500003050C847013003D14FF0FF30BDE8F087013596
S31500003060C1E7E1185A1C30200233224481F843009C
S3150000307094F8451082F84310C2E7012322464146E0
S315000030803846C8470130E6D00136D9E72DE9FF4773
S315000030900F7E914680460C46782F9A460C9E01F18B
S315000030A0430207D8622F0AD8002F00F0D180582F8C
S315000030B000F0B88004F1420684F842703AE0A7F1C5
S315000030C06303152BF6D801A151F823F02531000032
S315000030D039310000B5300000B5300000B5300000D1
S315000030E0B530000039310000B5300000B5300000C1
S315000030F0B5300000B5300000373200006331000003
S31500003100F1310000B5300000B53000005932000042
S31500003110B530000063310000B5300000B530000066
S31500003120F931000033681A1D1B68326004F142064B
S3150000313084F8423001239CE033682068191D316011
S31500003140060601D51D6803E04506FBD5B3F9005018
S31500003150002D03DA2D236D4284F8433058480A23A4
S3150000316011E021683368080653F8045B02D4490667
S3150000317048BFADB26F2F3360514814BF0A230823EE
S31500003180002184F843106668002EA66005DB2168DE
S315000031902E4321F0040121604BD01646B5FBF3F116
S315000031A003FB1157C75D06F8017D2F460D46BB424E
S315000031B0F4D9082B0BD12368DF0708D5236961688A
S315000031C09942DEBF302306F8013C06F1FF36921B1A
S315000031D022614B4603AA21464046CDF800A0FFF7E0
S315000031E0E3FE01304AD14FF0FF3004B0BDE8F0876E
S315000031F0236843F02003236078273248236884F845
S3150000320045701F06316851F8045B02D45F0648BF5B
S31500003210ADB23160D90744BF43F0200323601DB12E
S315000032201023ADE72648E9E7236823F0200323604F
S31500003230F6E71646BDE733682568181D61693060F4
S315000032402E061B6801D5196002E06806FBD51980B9
S31500003250002316462361BCE7336800211A1D32603D
S315000032601E686268304600F0B6FA08B1801B6060DE
S3150000327063682361002384F84330AAE72369324652
S3150000328049464046D0470130ADD023689B0713D44A
S31500003290E068039B9842B8BF1846A6E7012332466A
S315000032A049464046D04701309DD00135E368039931
S315000032B05B1AAB42F2DCEBE7002504F11906F5E7F1
S315000032C0D2BA0100E3BA0100002310B504468360B8
S315000032D0818119464366C28108228361C0E90033B1
S315000032E0C0E904335C3000F01BFA0D4B24626362C4
S315000032F00C4BA3620C4BE3620C4B23630C4B9C42BE
S3150000330006D003F16802944202D0D0339C4205D124
S3150000331004F15800BDE8104000F05ABA10BD00BFD5
S315000033203D3500005F35000097350000BB350000D5
S31500003330EC130020024A0349034800F069B800BFB5
S315000033400C000020455100001C00002041680C4B79
S31500003350994210B5044601D001F0F4FEA168094B6C
S31500003360994202D0204601F0EDFEE168064B9942F3
S3150000337004D02046BDE8104001F0E4BE10BD00BFF9
S31500003380EC13002054140020BC14002010B50B4B85
S3150000339004210B4C0B4A20461A600022FFF794FFCB
S315000033A004F1680001220921FFF78EFF04F1D00025
S315000033B002221221BDE81040FFF786BF2415002027
S315000033C0EC13002035330000014800F002BA00BFBC
S315000033D02D150020014800F0FDB900BF2D15002075
S315000033E010B50446FFF7F0FF236A1BB1BDE8104095
S315000033F0FFF7F0BF044B2362044B1B68002BF5D18B
S31500003400FFF7C4FFF2E700BF4D330000241500208C
S315000034102DE9F8430746884614460026D4E9019567
S31500003420B9F1010905D52468002CF7D13046BDE86D
S31500003430F883AB89012B07D9B5F90E30013303D0D8
S3150000344029463846C04706436835E9E70FB407B54D
S31500003450064904AB086853F8042B8168019301F010
S31500003460D5FC03B05DF804EB04B0704718000020EB
S31500003470024B01461868826801F0EDBE1800002074
S31500003480036A70B505460E4684680BB9FFF7A8FFB8
S31500003490636EDB0705D4A389980502D4A06D00F0FE
S315000034A098F9A389190702D52369002B35D121463E
S315000034B0284600F0C5F880B34FF0FF35636EDA0793
S315000034C005D4A3899B0502D4A06D00F083F9284694
S315000034D070BD002B04DAA2699A4217DC0A2915D0BE
S315000034E023685A1C22601970A36816F8011F013B55
S315000034F0A3600029EDD1002B11DA22460A212846C5
S3150000350000F05FF80130D7D00A25D7E722462846D3
S3150000351000F057F80130E7D1CEE7013EE4E7236833
S315000035205A1C22600A221A70EEE7FFFF024B014680
S315000035301868FFF7A5BF00BF1800002010B50C469D
S31500003540B1F90E1000F01AF90028ABBF636DA3891C
S315000035501B1823F48053ACBF6365A38110BD2DE90E
S31500003560F0411F468B8905460C46DB05164605D5F8
S3150000357002230022B1F90E1000F0EEF8A3893246BC
S31500003580B4F90E10284623F48053A3813B46BDE8C8
S31500003590F04100F005B910B50C46B1F90E1000F077
S315000035A0DBF8431CA38915BF606523F4805343F4FD
S315000035B08053A38118BFA38110BDB1F90E1000F08E
S315000035C0BBB8F8B50E461446054618B1036A0BB9E2
S315000035D0FFF706FFA369A360A3891A0701D523692C
S315000035E043B92146284600F02BF818B14FF0FF37B3
S315000035F03846F8BD2368F6B222693746981A6369D9
S31500003600834205DC2146284601F09CFD0028EDD1C9
S31500003610A368013BA36023685A1C22601E70431CEA
S3150000362062699A4204D0A389DB07E1D50A2EDFD16D
S315000036302146284601F086FD0028D9D0D6E7FFFFAF
S3150000364038B5294B05460C46186818B1036A0BB9FC
S31500003650FFF7C6FEB4F90C30190722D4DA0607D4F0
S3150000366009222A6043F040034FF0FF30A38133E084
S31500003670580712D5616B41B104F14403994202D057
S31500003680284600F017FF00236363A38923F0240371
S31500003690A3810023636023692360A38943F00803A1
S315000036A0A38123694BB9A38903F42073B3F5007F83
S315000036B003D02146284601F092FDB4F90C3013F0F0
S315000036C001020AD00022A26062695242A261226906
S315000036D042B913F08000C5D138BD990758BF626959
S315000036E0A260F4E70020F7E718000020884210B532
S315000036F001EB020402D98442234607D8431EA142A5
S3150000370008D011F8012B03F8012FF8E7024401460F
S315000037108A4200D110BD13F8014D02F8014DF7E7BA
S3150000372002440346934200D1704703F8011BF9E7B0
S31500003730004870475801002038B50023054D04465F
S3150000374008462B6002F0B6FA431C02D12B6803B17F
S31500003750236038BD2815002038B50446064D0846B6
S31500003760114600222A601A4602F0BCFA431C02D116
S315000037702B6803B1236038BD2815002038B50446F0
S31500003780064D0846114600222A601A4602F0B2FA91
S31500003790431C02D12B6803B1236038BD28150020D5
S315000037A038B50446064D0846114600222A601A46D8
S315000037B0FCF718FD431C02D12B6803B1236038BD0A
S315000037C028150020014B1868704700BF180000201C
S315000037D0704770477047C9B20346024410B593421A
S315000037E0184601D1002003E0047801338C42F6D15B
S315000037F010BD0A44431E914200D1704710B511F81E
S31500003800014B914203F8014FF9D110BD034613F85D
S31500003810012B002AFBD1181A013870472DE9F74F02
S31500003820036907460C69A342C0F28380013C00F19C
S31500003830140501F11408A30055F8242008EB8409A7
S31500003840009305EB8403019358F8243001339A4220
S31500003850B2FBF3F631D34FF0000AC446AE46D34668
S315000038605CF8043B98B2E1454FEA134306FB00A01F
S315000038704FEA104280B206FB0323DEF8002092B224
S315000038804FEA134AA2EB00029BB2DEF800005A444C
S31500003890C3EB224392B203EB104342EA03424FEAE0
S315000038A0234B4EF8042BDBD2009BEB582BB9019B24
S315000038B0043B9D421A4630D33C61384601F070F90C
S315000038C0002826DB2946002058F8042BD1F800C032
S315000038D01FFA82FEC1451FFA8CF34FEA1242A3EB90
S315000038E00E030344C2EB23429BB202EB1C4243EAA3
S315000038F002434FEA224041F8043BE5D255F8242022
S3150000390005EB840322B9043B9D421A460BD33C6166
S315000039100136304603B0BDE8F08F1268043B002A3A
S31500003920CAD1013CC5E71268043B002AEFD1013C2D
S31500003930EAE70020EEE7FFFF2DE9F04FC76999B0EF
S315000039408346229E09910E92139355EC104B8DEDF2
S31500003950040B7FB9102000F0F7FD0246CBF81C00DF
S3150000396020B9A74BEF21A748FDF7C0FCC0E90177B6
S315000039700760C760DBF81C30196859B15A68012323
S31500003980584693404A608B6000F0D4FEDBF81C304A
S3150000399000221A602B1EB7BF23F00043002301222A
S315000039A00593A8BF3360059F974BB8BF3260BB43F2
S315000039B012D142F20F73139A1360C7F31303234312
S315000039C000F04685239BDFF854A2002B00F04885C3
S315000039D00AF1030300F042BD9DED047B00220023A3
S315000039E051EC170B8DED0C7B02F0F4F8804658B1C4
S315000039F00123139A1360239B13B1844B239A1360FC
S31500003A00DFF81CA200F02CBDC7F30A5616AA17A9A8
S31500003A1058469DED0C0B01F077F98146002E75D0C6
S31500003A200D9BA6F2FF36CDF85080C3F3130343F087
S31500003A307F53DDE90C0143F4401319460022744B11
S31500003A4001F0A8FC68A3D3E9002301F05BFE68A39C
S31500003A50D3E9002301F0A0FC04460D46304601F0F0
S31500003A60E7FD65A3D3E9002301F04CFE02460B46B1
S31500003A702046294601F090FC04460D4602F0F2F875
S31500003A800022074600232046294602F0ADF840B141
S31500003A90384601F0CDFD22462B4602F09BF800B9D0
S31500003AA0013F162F51D85B4B03EBC703DDE90C0131
S31500003AB0D3E9002302F098F8002848D0013F0023FC
S31500003AC01293169B9B1B5A1E46BFC3F10108002387
S31500003AD04FF00008089248BF0893002F39DB089B77
S31500003AE00F973B44089300230A93099B092B61D83F
S31500003AF0052BC5BF043B002401240993099B023B07
S31500003B00032B63D8DFE803F05254372CDDE9166344
S31500003B101E4406F23243202BC9BFC3F14003C3F152
S31500003B2020039F4006F21243D8BF04FA03F006F1C1
S31500003B30FF36C4BF24FA03F347EA030001F068FD29
S31500003B400122A1F1F873149277E70123B8E71290E6
S31500003B50B7E77B42A8EB07080A9300230F93C4E755
S31500003B6001230B930E9BFB1800930133012B039348
S31500003B70B8BF012306E001230B930E9B002B28DD23
S31500003B8000930393DBF81C000021042202F11405C4
S31500003B909D4223D94160584600F08CFD824600289C
S31500003BA040D11D4B024640F2AF11DCE60023E3E7AD
S31500003BB00023D6E7012400230B9409934FF0FF332B
S31500003BC000220093039312230E92DBE701230B934B
S31500003BD0F4E701231A4600930393F5E701315200F7
S31500003BE0D4E700BFAFF3008061436F63A787D23F7E
S31500003BF0B3C8608B288AC63FFB799F501344D33FD6
S31500003C0001BB010018BB01000000F07FD1BA010022
S31500003C100000F83F30BC010071BB0100FDBA010095
S31500003C20D0BA0100DBF81C301860039B0E2B00F2A3
S31500003C30A180002C00F09E80002F33DD07F00F02DC
S31500003C409B4BF8054FEA271403EBC20393ED007B69
S31500003C508DED067B16D5974B04F00F040326D3E9AA
S31500003C600823DDE90C0101F077FECDE90401914D51
S31500003C7054B9DDE90623DDE9040101F06DFECDE965
S31500003C80040128E00226F2E7E10708D50136DDE95E
S31500003C900601D5E9002301F035FDCDE906016410E2
S31500003CA00835E5E700F0AF807C42814B814D022666
S31500003CB004F00F02241103EBC203DDE90C01D3E982
S31500003CC0002301F01FFD0023CDE90401002C40F084
S31500003CD08F80002BD3D1129BDDE90445002B00F029
S31500003CE094800022744B2046294601F07DFF00286F
S31500003CF000F08B80039B002B00F08780009B002B3D
S31500003D0034DD7B1E204600222946069301366B4B86
S31500003D1001F0F8FC009CCDE90401304601F088FC76
S31500003D20DDE9042301F0EEFC0022654B01F034FBD3
S31500003D300546A1F15076002C6AD10022614BDDE9DF
S31500003D40040101F027FB02460B46CDE904232A466F
S31500003D50334601F067FF002840F087822A4606F1C5
S31500003D600043DDE9040101F03FFF38BBDDE90C3417
S31500003D70CDE90434179B002BC0F258810E2F00F3B7
S31500003D8055814B4B03EBC70393ED007B0E9B002B3A
S31500003D908DED007B80F2E580039B002B00F3E18034
S31500003DA00CD10022474B51EC170B01F0ABFCDDE9BF
S31500003DB0042301F02DFF002800F05582002425463B
S31500003DC00E9B5646DB43069300272146584600F0D5
S31500003DD0B1FC002D00F0BD802FB1AF4203D03946B3
S31500003DE0584600F0A7FC2946584600F0A3FCB0E070
S31500003DF0E20705D50136D5E9002301F083FC01234E
S31500003E006410083562E7022665E7039C069784E797
S31500003E10274B0B9903EBC403544453E902230029AF
S31500003E2054D00020284901F097FD334656462A46CD
S31500003E3001F0B0FACDE91001DDE9040101F012FF4D
S31500003E40054601F0F5FB02460B463035DDE9040177
S31500003E5001F0A0FA02460B4606F8015BCDE9042301
S31500003E60DDE9102301F0C0FE002872D100201249BE
S31500003E70DDE9042301F08EFADDE9102301F0B4FE3A
S31500003E80002840F0B480A6423FF470AF00220B4BEE
S31500003E90DDE9100101F036FC0022084BCDE91001E6
S31500003EA0DDE9040101F02EFCCDE90401C4E700BF01
S31500003EB030BC010008BC01000000F03F00002440B7
S31500003EC000001C40000014400000E03F314656460A
S31500003ED0284601F017FC1594CDE91001DDE904012F
S31500003EE001F0C0FE054601F0A3FB024630350B4645
S31500003EF0DDE9040101F04EFA06F8015B02460B46C5
S31500003F00A642CDE904234FF0000224D1AB4BDDE9F4
S31500003F10100101F041FA02460B46DDE9040101F009
S31500003F2081FE002863D10020A449DDE9102301F0B9
S31500003F3031FA02460B46DDE9040101F055FE002880
S31500003F403FF414AF159E731E159316F8013C302BE3
S31500003F50F8D0069F3BE09A4B01F0D4FBCDE9040173
S31500003F60BCE7DDE90445564620462946DDE900233F
S31500003F7001F0F2FC01F076FE804601F059FBDDE926
S31500003F80002301F0BFFB0246204608F130040B4631
S31500003F90294601F0FFF9039D06F8014BA6EB0A043A
S31500003FA002460B46A54234D101F0F6F904460D4609
S31500003FB0DDE9002301F036FEC0B920462946DDE9D9
S31500003FC0002301F007FE10B118F0010F0ED149468B
S31500003FD0584600F0AFFB002301373370139B1F6078
S31500003FE0239B002B00F03C821E6039E20697334685
S31500003FF01E4613F8012D392A07D19A45F8D1069A9B
S315000040000132069230228AF800201A7801321A709C
S315000040109FE700226A4B01F075FB0022002304464D
S315000040200D4601F0D7FD00289ED0D0E70B9A002A56
S3150000403000F0E180099A012A00F3C480149A002A4C
S3150000404000F0B78003F233430A9C4646089A0121E2
S31500004050584698441A44089200F022FC05465EB180
S31500004060089B002B08DDB342089AA8BF3346A8EB8D
S315000040700308F61AD31A08930A9BF3B10B9B002B7D
S3150000408000F0BD808CB129462246584600F0C2FC9D
S315000040904A4601460546584600F018FC4946069031
S315000040A0584600F047FB069B99460A9B1A1B04D00C
S315000040B04946584600F0AEFC81460121584600F0BC
S315000040C0EFFB0F9B0446002B00F0CE811A460146FB
S315000040D0584600F09FFC099B0446012B00F395808F
S315000040E0049B002B40F08D80059BC3F31303002B2C
S315000040F040F08980059B23F000431B0D1B052BB167
S31500004100089B08F101080133089301230A930F9BCA
S31500004110002B00F0AF81236904EB8303186900F0DC
S3150000412073FBC0F12000089B184410F01F0077D0E5
S31500004130C0F12003042B6BDDC0F11C00089B8044FA
S31500004140034406440893B8F1000F05DD494642468C
S31500004150584600F0B9FC8146089B002B05DD214638
S315000041601A46584600F0B0FC0446129B002B59D064
S315000041702146484600F014FD002853DA7B1E4946C6
S315000041800A2258460693002300F0F6FA0B9B814656
S31500004190002B00F07181002329460A22584600F0C0
S315000041A0EBFA009B0546002B67DC099B022B41DCE2
S315000041B063E0169BC3F1360346E700BF0000E03F0D
S315000041C000002440039B5C1E0A9BA34209DB1C1BC8
S315000041D0039B002BBFF639AF039BA8EB0306002316
S315000041E034E70A9B46460F9AE31A0A9400241A44B7
S315000041F0039B0F922AE70A9C46460B9D2FE70A9AD5
S3150000420056E7002382E7049B80E700230A9382E7B0
S3150000421099D01C33089A1A4498441E44089292E78F
S315000042200346F6E7039B0697002B20DC0093099BC9
S31500004230022B1EDD009B002B7FF4C2AD214605221A
S31500004240584600F099FA01460446484600F0A8FC94
S3150000425000287FF7B5AD3123564606F8013B069B8D
S3150000426001330693B0E5039C06972546F3E7039BC7
S3150000427000930B9B002B00F00381002E05DD2946E1
S315000042803246584600F020FC05460A9B002B5AD0C1
S315000042906968584600F00EFA064628B9834B02466E
S315000042A040F2EF21FFF75FBB2A6905F10C010C30E4
S315000042B002329200FFF79DFA01223146584600F07D
S315000042C003FC0AF101032F4605460393009B534462
S315000042D00B93049B03F001030A93039B2146484674
S315000042E0013B0093FFF79AFA3946049000F1300833
S315000042F0484600F055FC2A4608902146584600F0EC
S315000043006BFCC268064602BB0146484600F048FC04
S315000043100246314658460E9200F00CFA099B0E9A58
S31500004320039E42EA03010A9B194310D1B8F1390FE3
S3150000433029D0089B002B02DD049B03F13108009B6A
S3150000434083F8008041E52846BBE70122E1E7089BA8
S31500004350002B04DB09990B430A990B4320D1002A51
S31500004360EDDD49460122584600F0AEFB2146814666
S3150000437000F016FC002803DCE1D118F0010FDED0B6
S31500004380B8F1390FD8D13923009A137033461E4637
S31500004390013B16F8012C392A51D001321A7014E566
S315000043A0002A07DDB8F1390FEDD008F10103009AB4
S315000043B013700AE5039B0B9A03F8018C934228D0ED
S315000043C0494600230A22584600F0D6F9AF428146F4
S315000043D04FF000034FF00A023946584607D100F065
S315000043E0CBF907460546039B0133039375E700F0B7
S315000043F0C3F92946074600230A22584600F0BCF9AD
S315000044000546F0E7009B0027002BCCBF1E46012681
S31500004410564449460122584600F056FB214681463D
S3150000442000F0BEFB0028B1DC02D118F0010FADD1BF
S3150000443033461E4613F8012D302AFAD0C5E49A45B4
S31500004440A5D1069B0133069331238AF80030BCE4DC
S31500004450239BDFF85CA01BB10AF10803239A1360C3
S31500004460504619B0BDE8F08F099B012B7FF738AE97
S315000044700F9B0A93012056E6009B002B7FF7D7AED1
S31500004480564621464846FFF7C9F900F13008009B19
S3150000449006F8018BA6EB0A029342B3DD49460023D8
S315000044A00A22584600F068F98146EAE771BB010026
S315000044B0F4BA010038B50546002941D051F8043C4C
S315000044C00C1F002BB8BFE41800F0E8F81D4A13686B
S315000044D033B9636014602846BDE8384000F0E4B89C
S315000044E0A34208D9206821188B4201BF19685B686E
S315000044F009182160EDE71A465B680BB1A342FAD9A9
S3150000450011685018A0420BD1206801445018116060
S315000045108342E0D118685B68084453601060DAE7AC
S3150000452002D90C232B60D6E7206821188B4202BFE4
S3150000453019685B680918636008BF21605460CAE7A0
S3150000454038BD00BF34150020024B0146186800F044
S3150000455025B800BF1800002070B50F4E0C46054662
S31500004560316811B900F0CEFE30602146284600F0D1
S31500004570C9FE431C03D14FF0FF34204670BDC41C56
S3150000458024F00304A042F8D0211A284600F0BAFE0F
S315000045900130F2D1EFE700BF301500202DE9F843D6
S315000045A0CD1C064625F0030508350C2D38BF0C2515
S315000045B0002D01DBA94204D90C2333600020BDE89D
S315000045C0F883DFF8D48000F069F8D8F800301C468C
S315000045D044BB29463046FFF7BFFF431C044658D16B
S315000045E0D8F800402746002F43D1002C4BD0236833
S315000045F03946304604EB030900F084FE814542D17A
S31500004600216830466D1A2946FFF7A6FF01303AD0D9
S3150000461023682B442360D8F800305A6862BBC8F878
S3150000462000700FE02268521B20D40B2A17D961199B
S31500004630A342256018BF5960636808BFC8F8001018
S3150000464062514B60304600F02FF804F10B00231D39
S3150000465020F00700C21A1CBF1B1AA350AFE76268FE
S31500004660A3420CBFC8F800205A60EBE723466468F3
S31500004670AEE73C467F68B6E71A465B68A342FBD1C5
S3150000468000235360DEE70C233046336000F00CF85D
S3150000469094E70560D6E700BF341500200148FFF710
S315000046A098B800BF2C1500200148FFF793B800BF4B
S315000046B02C15002070B5C66904460D4676B9102043
S315000046C0FFF742FF0246E06120B9184B6B211848FC
S315000046D0FCF70CFEC0E901660660C660E669F36891
S315000046E083B1E369DB6853F82500B8B90121204698
S315000046F001FA05F6721D920000F014FE60B1C0E9E1
S3150000470001560EE021220421204600F00BFEE3694B
S31500004710F060DB68002BE4D1002070BD026843F82E
S3150000472025200023C0E90333F7E700BF01BB0100E2
S3150000473082BB010070B5C66905460C4676B91020E5
S31500004740FFF702FF0246E86120B9094B8F210948AD
S31500004750FCF7CCFDC0E901660660C6603CB1EB69BA
S315000047606268DB6853F82210216043F8224070BD6E
S3150000477001BB010082BB01002DE9F04101F1140CDF
S3150000478007460C461E460D690020DCF80030013055
S3150000479099B2854202FB01614FEA13464FEA114383
S315000047A089B202FB063301EB03414FEA13464CF88C
S315000047B0041BEADC0EB3A368AB4219DC6168384619
S315000047C00131FFF777FF804628B902460C4BBA2124
S315000047D00C48FCF78BFD226904F10C010C30023207
S315000047E09200FFF706F8214644463846FFF7A2FF37
S315000047F004EB850301355E6125612046BDE8F08145
S3150000480071BB010082BB0100B0F5803F034636BF95
S31500004810030400201020B3F1807F3CBF1B02083048
S31500004820B3F1805F3CBF1B010430B3F1804F3CBF46
S315000048309B000230002B05DB13F0804F00F10100D6
S3150000484008BF202070470368024613F007000BD00C
S31500004850D90721D4980747BF5B0801209B0802208F
S315000048604CBF13601360704799B209B91B0C102036
S31500004870D9B209B908301B0A190704BF1B0904304D
S31500004880990704BF9B080230D90703D45B0800F1DF
S31500004890010003D013607047002070472020704746
S315000048A010B50C460121FFF705FF024628B9054B56
S315000048B040F245110448FCF719FD012344610361E8
S315000048C010BD00BF71BB010082BB01002DE9F04F96
S315000048D017460A69894685B03B699A42A2BF3B469C
S315000048E00F4699463D69BB68D9F810A0796805EB73
S315000048F00A06B342B8BF0131FFF7DCFE30B9024603
S31500004900424B4FF4B1714248FCF7F0FC00F114043D
S31500004910002204EB860E2346734520D307F11408C4
S3150000492009F1140108EB850501EB8A030293EB1BE1
S315000049301537153B23F003030433BD4238BF042368
S315000049400193029B03918B420CD8002E03DD5EF887
S31500004950043D002B57D0066105B0BDE8F08F43F843
S31500004960042BD9E7B1F800A0BAF1000F21D0C44654
S31500004970A14600275CF8042BD9F800301FFA82FB09
S3150000498065459BB24FEA12420AFB0B333B44D9F80A
S3150000499000704FEA17470AFB027202EB13429BB202
S315000049A04FEA124743EA024349F8043BE2D8019B27
S315000049B0E750039B0431B3F80290B9F1000F20D001
S315000049C023684746A4464FF0000AB7F800B09BB2EA
S315000049D0BCF8022009FB0B22524443EA02434CF87E
S315000049E0043B57F8043B4FEA134ABCF80030BD427B
S315000049F009FB0A3303EB12434FEA134AE5D8019A3F
S31500004A00A35004349DE7013E9FE700BF71BB010040
S31500004A1082BB01002DE9F843154612F00302074652
S31500004A200E4607D0013A254C002354F82220FFF702
S31500004A30A3FE0646AD103DD0FC697CB91020FFF7F9
S31500004A4083FD0246F86128B91D4B40F2B3111D489B
S31500004A50FCF74CFCC0E901440460C460D7F81C8034
S31500004A60D8F808404CB940F271213846FFF718FFD4
S31500004A7000230446C8F8080003604FF00009EB075E
S31500004A800AD5314622463846FFF720FF8046314692
S31500004A9038464646FFF74EFE6D100BD0206838B9F3
S31500004AA0224621463846FFF711FF2060C0F80090E5
S31500004AB00446E4E73046BDE8F88300BFF8BB0100D2
S31500004AC001BB010082BB01002DE9F0470C460746F9
S31500004AD091464FEA621A2369496803EB6218A36894
S31500004AE008F10106B3420BDB3846FFF7E3FD054646
S31500004AF048B90246284B4FF4EF712848FCF7F6FBFD
S31500004B0001315B00EEE7002300F1140100F1100211
S31500004B101846534533DB2AEAEA7A04F1140320697E
S31500004B2019F01F0901EB8A0103EB800C2BD0C9F1A8
S31500004B30200E8A460022186800FA09F010434AF847
S31500004B40040B53F8042B9C4522FA0EF2F3D8ACEB77
S31500004B50040304F11500153B23F0030304336045F9
S31500004B6088BF0423CA500AB108F10206013E38463E
S31500004B7021462E61FFF7DEFD2846BDE8F0870133AA
S31500004B8042F8040FC5E7043953F8042B9C4541F855
S31500004B90042FF9D8EAE700BF71BB010082BB010010
S31500004BA003460A690069801A30B50ED114331431F0
S31500004BB003EB820401EB820154F8045D51F8042DE5
S31500004BC0954203D005D24FF0FF3030BDA342F3D358
S31500004BD0FBE70120F9E7FFFF2DE9F74F8946064677
S31500004BE0114614464846FFF7DBFF051E12D129463B
S31500004BF03046FFF75FFD024628B9414B40F23721A8
S31500004C004048FCF773FB0123C0E90435104603B0A6
S31500004C10BDE8F08FBCBF4B46A1463046B8BF012564
S31500004C20D9F80410B4BF1C460025FFF743FD024621
S31500004C3018B9334B40F24521E2E7D9F8107004F178
S31500004C40140E266900F1140BC56009F1140509F16B
S31500004C5010030EEB860605EB8708D9464FF0000CCD
S31500004C600193019B5EF8040B53F804AF764501935C
S31500004C701FFA8AF3194683B24FEA1040A1EB0303E9
S31500004C80C0EB1A40634400EB23409BB24FEA204C32
S31500004C9043EA004349F8043BE3D8331B1534153B7C
S31500004CA023F003030433A64238BF04231D445B44A8
S31500004CB02C461E4644450ED308F10301491B033D0D
S31500004CC021F00301A84538BF00210B4453F8041D09
S31500004CD099B117619AE754F8041BE6461FFA81FC5E
S31500004CE0080C7144F44489B200EB2C4041EA0041BF
S31500004CF04FEA204C46F8041BDCE7013FE6E700BF1D
S31500004D0071BB010082BB01002DE9F7430F4601216B
S31500004D10164659EC108BFFF7CDFC044630B9024617
S31500004D20234B40F20F312348FCF7E0FAC9F30A554A
S31500004D30C9F313030DB143F480130193B8F10003D3
S31500004D4023D068460093FFF77EFDDDE90012D0B15F
S31500004D50C0F1200302FA03F3C2400B4301926361E0
S31500004D60019B002BA3610CBF012202222261A5B187
S31500004D70A5F233450544C0F135003D60306020465C
S31500004D8003B0BDE8F0836161EAE701A8FFF75BFDC8
S31500004D90019B203001226361E8E7A0F2324004EB78
S31500004DA0820338601869FFF72FFDC0EB4210E5E774
S31500004DB071BB010082BB01009368013B002B93602D
S31500004DC010B408DA9469A34201DB0A2903D15DF81D
S31500004DD0044BFEF7F6BB1368581C106008461970A2
S31500004DE05DF8044B7047F8B506460F461446D518CD
S31500004DF0AC4201D1002007E03A4614F8011B3046C8
S31500004E00FFF7DAFF431CF3D1F8BDFFFF2DE9F04FA2
S31500004E100D469DB014469846064618B1036A0BB96E
S31500004E20FEF7DEFA6B6ED90705D4AB899A0502D474
S31500004E30A86DFEF7CEFCAB891B0701D52B699BB984
S31500004E4029463046FEF7FCFB70B16B6EDC0704D5D5
S31500004E504FF0FF301DB0BDE8F08FAB899805F7D451
S31500004E60A86DFEF7B7FCF3E70023CDF80C804FF0F2
S31500004E700109DFF8B481099320238DF82930302306
S31500004E808DF82A3023469A4613F8012B0AB1252AB3
S31500004E90F9D1BAEB040B0BD05B46224629463046C5
S31500004EA0FFF7A1FF013000F0A780099A5A44099242
S31500004EB09AF80030002B00F09F8000234FF0FF325D
S31500004EC00AF1010A049307938DF853301A93CDE93A
S31500004ED0052354460522544814F8011BFEF77BFCB3
S31500004EE0049AD8B9D10644BF20238DF8533013074E
S31500004EF044BF2B238DF853309AF800302A2B15D057
S31500004F00079A544600204FF00A0C214611F8013B3F
S31500004F10303B092B4BD9B0B1079214E0A0EB080344
S31500004F20A24609FA03F313430493D2E7039B191D20
S31500004F301B68002B0391BBBF5B4242F00202079342
S31500004F400793B8BF049223782E2B0AD163782A2BB5
S31500004F5032D1039B02341A1D1B6843EAE3730392A2
S31500004F600593DFF8D4A0032221785046FEF733FCE0
S31500004F7038B1A0EB0A004022049B0134824013435F
S31500004F80049314F8011B062228488DF82810FEF712
S31500004F9022FC00283FD0264B1BBB039B073323F084
S31500004FA0070308330393099B3B4409936AE70CFB09
S31500004FB002320C460120A8E7002301344FF00A0C08
S31500004FC019460593204610F8012B303A092A03D9D1
S31500004FD0002BC6D00591C4E70CFB01210446012332
S31500004FE0F0E703AB2A4604A930460093114BFDF7C0
S31500004FF0B1FD0746781CD6D16B6ED90705D4AB89AF
S315000050009A0502D4A86DFEF7E5FBAB895B063FF572
S315000050101FAF09981EE703AB2A4604A93046009342
S31500005020044BFEF733F8E4E7DCBB0100E6BB010006
S31500005030552B0000E74D0000E2BB0100B1F90C2042
S315000050402DE9F041160705460C4654D44B68002B53
S3150000505002DC0B6C002B48DDE66A002E45D00023EF
S3150000506012F480522F68216A2B6030D0626DA389BA
S31500005070590705D56368D21A636B0BB1236CD21A34
S315000050800023E66A216A2846B047431CA38906D155
S3150000509029681D292BD82A4ACA40D60727D50022B7
S315000050A0D90462602269226004D5421C01D12B68B2
S315000050B003B96065616B2F60B9B104F1440399428D
S315000050C002D02846FFF7F6F9002363630DE00123BB
S315000050D02846B0470246501CC9D12B68002BC6D0C3
S315000050E01D2B01D0162B1DD12F60002021E043F08F
S315000050F040031BB21AE00F69002FF6D093070E6823
S315000051000F600CBF4B690023A6EB07088B60B8F154
S31500005110000FEADD43463A46216A2846A66AB047AA
S31500005120002808DCB4F90C3043F040034FF0FF30A0
S31500005130A381BDE8F0810744A8EB0008E7E700BFBC
S315000051400100402038B50B6905460C4613B9002509
S31500005150284638BD18B1036A0BB9FEF741F9B4F910
S315000051600C30002BF3D0626ED00704D4990502D41C
S31500005170A06DFEF72EFB28462146FFF75FFF636E04
S315000051800546DA07E4D4A3899B05E1D4A06DFEF7B2
S3150000519021FBDDE770B50C46B1F90E1096B0154649
S315000051A000291E460CDAA389002113F0800F14BFD4
S315000051B040234FF48063002031602B6016B070BD31
S315000051C06A4600F07DF80028EDDB019901F4704194
S315000051D0A1F50053594259414FF48063EBE78B899F
S315000051E0F7B59D0706460C4607D504F1470323602D
S315000051F023610123636103B0F0BD01AB6A46FFF78B
S31500005200C9FF009F054630463946FFF7C7F948B93A
S31500005210B4F90C309A05EED423F0030343F00203ED
S31500005220A381E2E7A389206043F08003A381019B69
S31500005230C4E904075BB1B4F90E10304600F052F829
S3150000524028B1A38923F0030343F00103A381A389B3
S315000052501D43A581CFE770B50D461446064618B125
S31500005260036A0BB9FEF7BCF8636ED80705D4A389A9
S31500005270990502D4A06DFEF7ACFAA368013B002B9A
S31500005280A36005DAA269934212DBEBB20A2B0FD0B8
S3150000529023685A1C22601D70EDB2636EDA0705D4CE
S315000052A0A3899B0502D4A06DFEF794FA284670BD2B
S315000052B0294622463046FEF784F90546EDE7FFFF0C
S315000052C038B50023064D0446084611462B6000F00B
S315000052D0F9FC431C02D12B6803B1236038BD00BF23
S315000052E02815002038B50023054D044608462B60D6
S315000052F000F0F0FC431C02D12B6803B1236038BDDB
S315000053002815002038B50023054D044608462B60B5
S31500005310FCF760F9431C02D12B6803B1236038BD4A
S315000053202815002070B5A1FB025434B92946FFF7B1
S3150000533035F9064628B9304670BD0C2200260260B3
S31500005340F9E72A462146FEF7EBF9F4E782B001B900
S3150000535001A942B14BB113780B601278101E18BF29
S31500005360012002B070471046FBE76FF00100F8E736
S315000053700346084641B1FF2A04D98A224FF0FF307E
S315000053801A60704701200A707047FFFF81F00041E4
S3150000539002E000BF83F0004330B54FEA41044FEA14
S315000053A0430594EA050F08BF90EA020F1FBF54EAAF
S315000053B0000C55EA020C7FEA645C7FEA655C00F04B
S315000053C0E2804FEA5454D4EB5555B8BF6D420CDD1C
S315000053D02C4480EA020281EA030382EA000083EA9F
S315000053E0010180EA020281EA0303362D88BF30BD3F
S315000053F011F0004F4FEA01314FF4801C4CEA113195
S3150000540002D0404261EB410113F0004F4FEA0333F3
S315000054104CEA133302D0524263EB430394EA050F7E
S3150000542000F0A780A4F10104D5F1200E0DDB02FAED
S315000054300EFC22FA05F2801841F1000103FA0EF281
S31500005440801843FA05F359410EE0A5F120050EF147
S31500005450200E012A03FA0EFC28BF4CF0020C43FA78
S3150000546005F3C01851EBE37101F0004507D54FF085
S31500005470000EDCF1000C7EEB00006EEB0101B1F5D5
S31500005480801F1BD3B1F5001F0CD349085FEA30001B
S315000054904FEA3C0C04F101044FEA445212F5800F26
S315000054A080F09A80BCF1004F08BF5FEA500C50F1C3
S315000054B0000041EB045141EA050130BD5FEA4C0CA6
S315000054C0404141EB0101013C28BFB1F5801FE9D203
S315000054D091F0000F04BF01460020B1FA81F308BF26
S315000054E02033A3F10B03B3F120020CDA0C3208DDF2
S315000054F002F1140CC2F10C0201FA0CF021FA02F1CD
